:100000000C9488030C94A5030C94A5030C94A503ED
:100010000C94A5030C94A5030C94A5030C94A503C0
:100020000C94A5030C94A5030C94A5030C94A503B0
:100030000C94A5030C94A5030C94A5030C94A503A0
:100040000C94A5030C94A5030C94A5030C94A50390
:100050000C94A5030C94A5030C94A5030C94A50380
:100060000C94A5030C94A503060126014A015D0129
:100070008801B801EE010B02000000000000000042
:100080000000000000000000000000000000000070
:100090000000000000000000000000000000000060
:1000A0000000000000000000000000000000000050
:1000B0000000000000000000000000000000000040
:1000C0000000000000000000000000000000000030
:1000D0000000000000000000000000000000000020
:1000E00000007B0006B900037B0003B900067B001B
:1000F00006B900037B0003B900067B0006B90003C4
:100100007B0003B900065C00068B00035C00038BD8
:1001100000067B0006B900037B0003B900067B00E4
:1001200006B900037B0003B900067B0006B9000393
:100130007B0003B900065C00068B00035C00038BA8
:1001400000067B0006B900037B0003B900067B00B4
:1001500006B900037B0003B900065C00068B0003B0
:100160005C00038B0006A500067B0003A500037B53
:1001700000065C00068B00035C00038B0006A500F4
:10018000067B0003A500037B00067B0006B9000385
:100190007B0003B900065C00068B00035C00038B48
:1001A00000067B0006B900037B0003B900067B0054
:1001B00006B900037B0003B900067B0006B9000303
:1001C0007B0003B900065C00068B00035C00038B18
:1001D00000067B0006B900037B0003B900067B0024
:1001E00006B900037B0003B900067B0006B90003D3
:1001F0007B0003B900065C00068B00035C00038BE8
:1002000000067B0006B900037B0003B900067B00F3
:1002100006B900037B0003B900065C00068B0003EF
:100220005C00038B0006A500067B0003A500037B92
:1002300000065C00068B00035C00038B0006A50033
:10024000067B0003A500037B00067B0006B90003C4
:100250007B0003B900065C00068B00035C00038B87
:1002600000067B0012000009EE01022A02024B0286
:1002700002930203E40209930206E40203EE010979
:10028000000003970403970406550406DC0306A444
:100290000303DC0309F700021501022601024A01EB
:1002A000037201094A0106720103F7000900000305
:1002B000970403970406550406DC0306A40303DC35
:1002C0000312E40206EE01032A0206EE0103D20144
:1002D000090000099302039302064B0203930206EE
:1002E000E402090000099302039302064B02039300
:1002F0000203E40206E40206EE0106EE0103E40254
:1003000009930203E40206EE0109EE01022A020249
:100310004B0202930203E40209930206E40203EE95
:1003200001090000034B02034B02062A02062A02BF
:1003300002EE0102EE0102D20103EE0109F7000212
:100340001501022601024A01037201094A010672DF
:100350000103F700090000039704039704065504FE
:1003600006550402DC0302DC0302A40303DC0312CF
:10037000720106F70003150106F70003E900090002
:1003800000094A01034A01062601034A01067201D7
:10039000090000094A01034A01062601034A010334
:1003A000720106720106F70006F700037201094A9E
:1003B0000103720106F70012C40006000003C40026
:1003C00009E90006060106C40006000003C400098E
:1003D000AF0006B90006C40006000003C40009E926
:1003E0000006060106C40006000003C40009AF00B1
:1003F00006B90006C40006000003C40009E90006AF
:10040000060106C40006000003C40009AF0006B9D7
:100410000006C40006000003C40009E90006060146
:1004200006C40006000003C40009AF0006B90006B8
:10043000C40006000003C40009E90006060106C462
:100440000006000003C40009AF0006B90006C4009E
:1004500006000003C40009E90006060106C4000600
:10046000000003C40009AF0006B90006C40006007E
:100470000003C40009E90006060106C400060000E6
:1004800003C40009AF0006B90006830012C40006C9
:10049000620006830012B900065C0006830012AFFA
:1004A0000006570006830012A50006520006C4008D
:1004B00012E90006060106C40012AF0006B90006E4
:1004C0000000781003031003034B0218100303BA53
:1004D00002032A02181003036E02030B0218D20152
:1004E000030B020300001800003CD2010388010343
:1004F000E40218D20103880103BA0218D20103886A
:1005000001039302186E02034B02030000186E02EF
:10051000030B02038801186E02030B020372011819
:100520006E02030B02035D01184A01035D01030023
:100530000018D20103880103E40218D201038801E4
:1005400003BA0218000004A50008F70008A5000877
:10055000F70008A50008F70008A50008F70008A59F
:100560000008F700087B0008F70008A50008F7005E
:1005700008A50008F70008A50008F70008A500086E
:10058000F70008A50008F700087B0008F70008A599
:100590000008F70008A50008F70008A50008F70004
:1005A00008A50008F70008DC0008A500087B000883
:1005B000F700087B0008F70008A50008F70008A569
:1005C0000008F70008A50008F70008A50008F700D4
:1005D00008DC00087B0008A500109302043F030418
:1005E0003F03043F0304E40202930202DC030CDC39
:1005F00003027003023F03043F03043F0304E402C9
:1006000002930202DC030CDC03027003023F0304CA
:10061000700302DC03027003043F0304E402046E6F
:100620000204EE01049302043F03043F03043F036A
:1006300004E40202930202DC030CDC0302700302F6
:100640003F03043F03043F0304E40202930202DC7D
:10065000030CDC03027003023F0304700302DC039B
:10066000027003043F0304E4020800000493020440
:10067000DC03047003023F0302700304DC0304552F
:100680000404DC0308930204DC03047003023F0348
:1006900002700304DC0304550404DC030893020421
:1006A000550404DC03087003043F0304E4020293CE
:1006B0000202E402013F0301E402013F0301E402FC
:1006C000013F0301E402013F0301E40208000004CA
:1006D000930204DC03047003023F0302700304DC92
:1006E0000304550404DC0308930204DC03047003D0
:1006F000023F0302700304DC0304550404DC030816
:10070000930204550404DC030870030493021000F0
:1007100011241FBECFEFD8E0DEBFCDBF13E0A0E0B5
:10072000B1E0E8EAF0E102C005900D92A838B10707
:10073000D9F723E0A8E8B3E001C01D92A439B207BD
:10074000E1F70E94DD070C9452080C94000010920F
:10075000B90088E48093B800089594EA9093BC00AF
:100760009091BC009923E4F78093BB0084E88093C8
:10077000BC008091BC008823E4F708958093BB00FF
:1007800084E88093BC008091BC008823E4F708953E
:1007900084E98093BC000895CF93DF9390E1899F13
:1007A000E0011124DC2FD8608EE40E94AD038C2F71
:1007B0008C600E94BE038D2F0E94BE030E94C8035E
:1007C000DF91CF9108950F931F93CF93DF93D82F8D
:1007D000D07FD62B0D2F086020E1829FC00111240D
:1007E000C62FC82B1C2F18608EE40E94AD038D2FDE
:1007F0008C600E94BE03802F0E94BE038C2F8C60F1
:100800000E94BE03812F0E94BE030E94C803DF9195
:10081000CF911F910F91089560E00E94E303089526
:10082000CF93DF93AC01EB01892BF9F48DE2888340
:1008300089838A831B822FC0E92FF0E0EE0FFF1F10
:10084000E859FF4F259134914217530718F4241BA0
:10085000350B04C0BA01621B730B9B012A173B07BF
:1008600010F4D901892F9F5F04C090E0AFEFBFEF74
:1008700080E09D3308F3E82FF0E0E258FC4F9081D0
:100880009883873019F485E3898302C084E38983E0
:1008900080E28A831B82DF91CF9108959C01809131
:1008A0008A0390918B038217930709F454C0309305
:1008B0008B0320938A032115310571F4E1E8F0E000
:1008C0008081887F8083E0E8F0E080818F7E808374
:1008D00085B18B7F85B90895C901A0E0B0E0880F8C
:1008E000991FAA1FBB1F880F991FAA1FBB1F880F24
:1008F000991FAA1FBB1F880F991FAA1FBB1F880F14
:10090000991FAA1FBB1F880F991FAA1FBB1F9C01FD
:10091000AD01220F331F441F551F60E074E284EFC6
:1009200090E00E94270821503109309389002093DC
:10093000880030938B0020938A00109285001092DB
:100940008400E0E8F0E0808180618083E1E8F0E00D
:100950008081836080830895CF92DF92EF92FF922F
:1009600020918803309189032817390709F499C029
:100970009093890380938803009759F41092B100F3
:10098000E0EBF0E080818F7B808385B1877F85B944
:1009900088C06C01E12CF12CD701C601880F991F8A
:1009A000AA1FBB1F880F991FAA1FBB1F880F991F63
:1009B000AA1FBB1F880F991FAA1FBB1F880F991F53
:1009C000AA1FBB1F880F991FAA1FBB1F9C01AD0147
:1009D000220F331F441F551F60E074E284EF90E044
:1009E0000E942708DA01C9010197A109B1098F3FC7
:1009F0009105A105B10509F030F48093B30084E0BE
:100A00008093B10047C060E074E284EF90E0A701FA
:100A10009601012E19E0220F331F441F551F1A950E
:100A2000D1F7102D0E942708DA01C9010197A10909
:100A3000B1098F3F9105A105B10509F030F480930C
:100A4000B30086E08093B10025C0A7019601012E76
:100A50001BE0220F331F441F551F1A95D1F7102D8D
:100A600060E074E284EF90E00E942708DA01C90197
:100A70000197A109B1098F3F9105A105B10529F0A1
:100A800020F08FEF90E0A0E0B0E08093B30087E02B
:100A90008093B1001092B200E0EBF0E080818064BE
:100AA0008083FF90EF90DF90CF900895CF93DF93F6
:100AB00000D01F92CDB7DEB780918C0390918D034B
:100AC000892BB9F580918E0390918F03209190032B
:100AD000309191038217930738F52091920330915A
:100AE0009303AC014F5F5F4F50938F0340938E038E
:100AF000BC01660F771F860F971FB901680F791F1A
:100B000043E050E0CE0101960E94490889819A8114
:100B10000E94AC048B812CE3829FC001112490932E
:100B20008D0380938C0305C080E090E00E94AC04AC
:100B300009C080918C0390918D03019790938D0350
:100B400080938C030F900F900F90DF91CF910895B9
:100B5000CF93DF9311C08091C000882324F480914B
:100B6000C600813779F00E9456058FE99FE0019712
:100B7000F1F700C00000CE01EC012197892B59F755
:100B800080E001C081E0DF91CF9108959093C5008E
:100B90008093C40088E18093C10086E08093C20006
:100BA00008959091C00095FFFCCF8093C6000895F2
:100BB0008091C0008823E4F78091C6000895CF9308
:100BC000DF93EC0103C021960E94D1058881811139
:100BD000FACFDF91CF9108958F929F92AF92BF92FB
:100BE000CF92DF92EF92FF920F931F93CF93DF93F9
:100BF00000D01F92CDB7DEB76C017B0150939303F9
:100C000040939203309391032093900310928F03AB
:100C100010928E0310928D0310928C0300E010E06E
:100C200035C0B801660F771F600F711F6C0D7D1DF9
:100C300043E050E0CE0101960E9449088B819CE37D
:100C4000899F40011124823030F00F2EFCE0AF2E3E
:100C5000B12CF02D02C0A12CB12C89819A810E9467
:100C60004E04C4018A199B090E94A805811111C074
:100C7000A114B10449F080E090E00E944E04C50147
:100C80000E94A805811105C00F5F1F4F0E151F059B
:100C900040F280E090E00E944E0480E090E00E94EC
:100CA000AC0480E091E00E94DF050F900F900F9060
:100CB000DF91CF911F910F91FF90EF90DF90CF9038
:100CC000BF90AF909F908F90089581E00E940C0498
:100CD0008FE39FE10197F1F700C0000008950E94A3
:100CE000A7032FEF80E792E0215080409040E1F78A
:100CF00000C0000083E00E94CC038FE19EE40197D6
:100D0000F1F700C0000083E00E94CC0387E592E089
:100D10000197F1F700C0000083E00E94CC0387E553
:100D200092E00197F1F700C0000082E00E94CC033E
:100D300087E592E00197F1F700C0000088E20E9489
:100D40000C048CE00E940C0486E00E940C040E94BB
:100D500065060895662311F090E401C090E0890FC4
:100D600080680E940C040895CF93DF93EC0104C0C7
:100D7000219661E00E94E30388818111F9CFDF9120
:100D8000CF9108950F931F93CF93DF938C01EB01C5
:100D90000E94650660E080E00E94AA06C8010E94E9
:100DA000B40661E080E00E94AA06CE010E94B4066B
:100DB000DF91CF911F910F91089581E291E00E9400
:100DC000DF056AEB71E08AEC91E00E94C2060895AB
:100DD0008BED91E00E94DF0568E172E089E292E02C
:100DE0000E94C20622E330E044E455E067E670E08A
:100DF0008AED95E00E94EC05089586E392E00E945A
:100E0000DF0568E172E08DE692E00E94C20628E507
:100E100030E048EB53E06CE270E080EC94E00E943C
:100E2000EC0508958EE792E00E94DF0568E172E02C
:100E300089EB92E00E94C20621E830E042EE50E0E9
:100E400061E770E085E692E00E94EC0508950F935B
:100E50001F93CF93DF9300D000D0CDB7DEB7182F0C
:100E6000062FCA01BE016F5F7F4F0E941004602FE2
:100E7000812F0E94AA06CE0101960E94B4060F900F
:100E80000F900F900F90DF91CF911F910F910895C8
:100E9000CF92DF92EF92FF920F931F93CF93DF9346
:100EA0008AEC92E00E94DF0562E173E081E293E068
:100EB0000E94C206C12CD12CE12CF12C8091C000E3
:100EC00088232CF48091C600813709F461C089B170
:100ED00090E0809590959595879595958795382F75
:100EE0003F7326B1822F90E08095909500249695CF
:100EF00087950794969587950794982F802D932F23
:100F0000982B80E000E010E0C0E0D0E01DC0482F4A
:100F100050E0292F30E0082E02C0359527950A941D
:100F2000E2F720FF10C0209739F4FA01EE0FFF1FFF
:100F3000E259FC4FC081D181440F551FFA01E2599B
:100F4000FC4F008111818F5F883008F3C8010E9437
:100F50004E04CE010E94AC04E016F10631F0A80167
:100F600061E083E00E9427077801CC16DD0631F0AE
:100F7000AE0161E08BE00E9427076E012FEF89EF41
:100F800090E0215080409040E1F700C0000096CFF3
:100F900080E090E00E944E0480E090E00E94AC046B
:100FA00080E091E00E94DF05DF91CF911F910F91CA
:100FB000FF90EF90DF90CF9008958AB183708AB947
:100FC0008BB18C6F8BB987B18C7F87B988B1836007
:100FD00088B984B18C6084B91092800088E08093D5
:100FE000810082E08093B0001092B10087E690E02B
:100FF0000E94C6050E946F060E94DD060E94D80569
:10100000803361F028F48A30C9F38D30B9F31AC007
:10101000823371F040F0833381F014C00E9448079E
:101020000E94DD06EBCF0E94E8060E94DD06E6CFB7
:101030000E94FD060E94DD06E1CF0E9412070E9479
:10104000DD06DCCF8CE293E00E94DF05D7CFA1E282
:101050001A2EAA1BBB1BFD010DC0AA1FBB1FEE1F32
:10106000FF1FA217B307E407F50720F0A21BB30B7D
:10107000E40BF50B661F771F881F991F1A9469F7F9
:1010800060957095809590959B01AC01BD01CF0155
:101090000895FB01DC0102C005900D9241505040C3
:0810A000D8F70895F894FFCF82
:1010A800566F6C7669656E646F20616C206D656E35
:1010B80075207072696E636970616C2E2E2E0D0A30
:1010C8000053656C656363696F6E6120656C206DA4
:1010D8006F646F206465206F7065726163696F6EFD
:1010E800210D0A30202D205069616E6F0D0A3120C4
:1010F8002D2043616E63696F6E20313A205072690A
:101108006D617665726120646520566976616C64EC
:10111800690D0A32202D2043616E63696F6E20329B
:101128003A204D6973696F6E20496D706F736962FB
:101138006C650D0A33202D2043616E63696F6E2044
:10114800333A204368616361726572612064656C3B
:10115800206F6C7669646F0D0A00323A4D697349E5
:101168006D7020333A4368616300303A5069616EAC
:101178006F20313A566976616C640043616E636929
:101188006F6E20313A204C61205072696D6176652E
:1011980072612028566976616C6469292E20456E33
:1011A8007669652027712720706172612073616CF0
:1011B80069722E2E2E0D0A00526570726F64756367
:1011C80069656E646F2E2E2E004C61205072696D19
:1011D80061766572610043616E63696F6E20323AB1
:1011E800204D6973696F6E20496D706F7369626C09
:1011F800652E20456E7669652027712720706172FB
:10120800612073616C69722E2E2E0D0A004D697370
:10121800696F6E20496D706F7369626C6500436118
:101228006E63696F6E20333A20436861636172654B
:1012380072612064656C206F6C7669646F2E20453E
:101248006E7669652027712720706172612073614D
:101258006C69722E2E2E0D0A0043686163617265F7
:101268007261204F6C7669646F004D6F646F205017
:1012780069616E6F2041637469766F2E20507265C4
:1012880073696F6E6520626F746F6E65732E20458B
:101298006E7669652027712720706F72205541523C
:1012A8005420706172612073616C69722E2E2E0D4C
:1012B8000A0041673A2D2D2D202047723A2D2D2DF9
:1012C800004D6F646F205069616E6F0053656C65E7
:1012D8006363696F6E206E6F2076616C696461204C
:1012E8002121212056616D6F20617272696261202F
:1012F8004A657375732C2064656A61206465207083
:10130800726F62617220636F7361730D0A00060168
:1013180026014A015D018801B801EE010B02434430
:08132800454647414243000025
:00000001FF
